:020000040800F2
:100000009807002039020008410200084302000856
:1000100045020008470200084902000800000000ED
:100020000000000000000000000000004B0200087B
:100030004D020008000000004F02000851020008B5
:10004000530200085302000853020008530200083C
:10005000530200085302000853020008530200082C
:10006000530200085302000853020008530200081C
:10007000530200085302000853020008530200080C
:1000800053020008530200085302000853020008FC
:1000900053020008530200085302000853020008EC
:1000A00053020008530200085302000853020008DC
:1000B00053020008530200085302000853020008CC
:1000C00053020008530200085302000853020008BC
:1000D00053020008FD1100085302000853020008F3
:1000E000530200085302000853020008530200089C
:1000F000530200085302000853020008530200088C
:10010000530200085302000853020008530200087B
:10011000530200085302000853020008530200086B
:10012000530200085302000853020008530200085B
:10013000530200085302000853020008530200084B
:10014000530200085302000853020008530200083B
:10015000530200085302000853020008530200082B
:10016000530200085302000853020008530200081B
:10017000530200085302000853020008530200080B
:10018000530200085302000800F002F800F044F89F
:100190000AA090E8000C82448344AAF10107DA45E2
:1001A00001D100F039F8AFF2090EBAE80F0013F0F0
:1001B000010F18BFFB1A43F0010318471014000089
:1001C00030140000103A24BF78C878C1FAD852071A
:1001D00024BF30C830C144BF04680C6070470000C1
:1001E0000023002400250026103A28BF78C1FBD840
:1001F000520728BF30C148BF0B6070471FB501F0E0
:10020000D9F99DE8030000F0A9FB00F073F81FBDC9
:1002100010B500F0D8F810BD00F03BF91146FFF71B
:10022000EDFF01F0A5F900F03FFB03B4FFF7F0FF8D
:1002300003BC00F025FD000009488047094800473D
:10024000FEE7FEE7FEE7FEE7FEE7FEE7FEE7FEE786
:10025000FEE7FEE704480549054A064B70470000E3
:100260001D1100088901000898010020980700204E
:1002700098030020980300200FB4044910B503AA86
:10028000029800F009F810BC5DF814FB8C00002007
:100290007047704770470000074B70B50D467B44B0
:1002A00000F011F80446284600F020F810B14FF095
:1002B000FF3070BD204670BDB512000001694A1CB8
:1002C00002610878704700B58FB0CDE90131002197
:1002D000059105497944CDE903101146684600F0BF
:1002E00024F90FB000BD0000E5FFFFFF007B00F028
:1002F0008000704710B54248542100F0E5FA4148AB
:10030000542100F0E1FA4048542100F0DDFA3F4961
:100310003B483C4A3F4B08603D490A603A491960F6
:10032000531C0365481C1065012008653B48344A8E
:1003300039A1784400F01CFA20B9384878440A38CA
:1003400000F0BBFA37482F4A35A1784400F010FA84
:1003500020B9344878440A3800F0AFFA32482A4AC3
:100360002FA1784400F004FA20B92F4878440A38C5
:1003700000F0A3FA40232248DC000021224600F0CE
:10038000D3F920B125487844543800F096FA1D4836
:1003900022464023002100F0C7F920B121487844CB
:1003A000543800F08AFA184822461023002100F041
:1003B000BBF9002806D01C487844BDE810405638E8
:1003C00000F07BBA10BD104870B5006D20F001043C
:1003D0000B4800F043FA0B4800F040FA0A4800F0DE
:1003E0003DFA09E0206D20F00105204600F036FAC4
:1003F000204600F073F82C46002CF3D170BD0000AD
:10040000380000208C000020E00000201C000020AC
:10041000200000202400002072000000881200004C
:100420007700000074120000601200000EB5CDE9E4
:10043000000100F005FC029069460120ABBE0EBD34
:1004400008B5694600900220ABBE08BD1FB58DE817
:10045000070069460520ABBE04B010BD1FB58DE88E
:100460000F0069460620ABBEF6E708B56946009066
:100470000920ABBE08BD1CB5CDE9000169460A20C4
:10048000ABBE1CBD704708B5694600900C20ABBEE2
:1004900008BD754600F040FAAE4605006946534671
:1004A00020F00700854618B020B5FFF7D3FEBDE861
:1004B00020404FF000064FF000074FF000084FF0CB
:1004C000000B21F00701AC46ACE8C009ACE8C0095C
:1004D000ACE8C009ACE8C0098D46704770B5044669
:1004E000051F00F01FFA0068002C14BF446870BD9F
:1004F000002C18BFAC423CBF20466468F8D30168AA
:100500000A18AA4218BF456003D12A68054611445B
:10051000016028684119A1421CBF6C6070BD616810
:10052000696021680844286070BD2DE9F0410646E5
:100530000024D6E90170F5688046304603E0414664
:10054000B847641C3046A8470028F8D12046BDE8CB
:10055000F0812DE9F04705460C46C86820F42010CC
:1005600040F48000C860800602D5084600F027FBF2
:10057000E06841F282014FF0FF390140022903D0C7
:10058000204600F0C5FAB5E000F42041B1F5004F77
:100590000FD1C00306D56168E06A884200D80846DA
:1005A000606006E02069E06260606069FFF76BFFF1
:1005B000A061A0680022EEB200280DDAE1688B0588
:1005C0000AD4C043A06041F490302260E0606068CB
:1005D000411C61600670A5E0E0689046226040F42E
:1005E0000050E060206968BB6069FFF73EFF0127AB
:1005F00004F12405A0B1A08910F4407F08D0E0697F
:1006000000F0DBF9206118B1E06840F4006016E00A
:10061000E7612561E06820F4407040F480600EE0FE
:10062000E06900F0CAF900282061F1D0E06840F4E8
:10063000006010F4407FE06002D140F48070E06020
:1006400020696060E06825696FF0010AC1051FD567
:100650006168E06A884200D80846411B04D02246FF
:10066000284600F05FFAF0BBE068010203D5E562BE
:10067000C4E9015854E0691CE1626160E16940F439
:100680008030491EC4E9021030462E70BDE8F08764
:10069000010202D500F480320AE06068411C61600A
:1006A0000670E0680A2E40F48030E06006D0002238
:1006B000E16A6068814203D90B4602E00122F7E754
:1006C0000346A7895B1B7F0503D4E7699F4200DDD2
:1006D000E2B1814200D80146E5620F1AC4E901582F
:1006E000002B09DD00E005E022461946284600F00F
:1006F00019FA08B14846C9E747B1A069E5626560E3
:10070000C01BA061E06840F01000E060E0680002FB
:1007100008D56168A069E562491B08446560A0616D
:100720005046B3E73046B1E770B5C468A50713D0AB
:10073000650211D4B2F5807F09D0B2F5007F06D0F2
:10074000B2F5806F08D1012300F1240106E05D1E9F
:100750006FF07F46B54201D3012070BD0161C361D6
:10076000416024F470611143C160002070BD00003D
:100770002DE9F0410C4607461646104600F06EF88B
:100780002078611C61280AD0722802D077283CD1D9
:1007900002E00125002405E00225042402E00824EB
:1007A00048F2020511F8010B2B2806D0622809D067
:1007B00011F8010C74280AD00BE045F0030544F051
:1007C0000204EFE745F0040544F00104EAE744F0D1
:1007D000100438462146FFF729FE411C15D00021A0
:1007E000316171604FF40071F560F1617061200753
:1007F00004D530460222002100F00EF9306D40F0A1
:10080000010030653046BDE8F0810020FBE72DE9AE
:10081000F0410D460646104C206DC10704D041083A
:1008200004D020F00104F7E722460EE0542000F047
:10083000C4F807000ED0206D47F001010843542191
:100840002065384600F040F83A4629463046BDE873
:10085000F0418DE70020D6E7380000202DE9F04771
:1008600004464FF000094FF0FF37C568D4E904860D
:10087000A80707D0204600F07FF93046FFF7E0FDDB
:10088000002802DA3846BDE8F087280502D5404640
:10089000FFF724FE4C21204600F016F8206D20F0D2
:1008A000010020654846EEE710B50446AFF300802E
:1008B0002046BDE81040FFF7B8BC10B500F0A6F91F
:1008C000BDE8104000F09CB94FF0000200B513469F
:1008D00094469646203922BFA0E80C50A0E80C5060
:1008E000B1F12001BFF4F7AF090728BFA0E80C5011
:1008F00048BF0CC05DF804EB890028BF40F8042B0A
:1009000008BF704748BF20F8022B11F0804F18BF76
:1009100000F8012B704700000048704734010020A8
:1009200070470000004870473C0100207047704746
:100930007047704738B504460A4600206946AFF351
:100940000080002808BF38BD02460099204600F00C
:10095000A4F9012038BD012000F0F3B9F8B5AFF3D8
:100960000080054600200C46102000BF0646A8194E
:10097000A0420DD9324669460020AFF3008007003F
:1009800008BF00F0DEF90098A04218BF0546C41960
:10099000FFF7C8FF05600746F01D20F00700461965
:1009A000284600F073F9B44208BFF8BDA21B3146D7
:1009B0003868BDE8F84000F070B970B50646FFF73A
:1009C000B1FF056806F10B0020F00704B4429CBF9C
:1009D000002070BD2B466A68BAB11068A04210D3DF
:1009E00004F1080188423CBF5068586007D3516841
:1009F000101941601168091B016058601460101DD6
:100A000070BD13465268002AE7D121462846FFF7F9
:100A100091FF0028DED170BD2DE9F0410446164655
:100A20000D464769007B80072ED03846FFF71DFD35
:100A300050BB3EB3012E02D0022E25D104E0204649
:100A400000F045F905441DE03846FFF71CFDE1685C
:100A5000002841F01001E16005DA204600F058F866
:100A60000120BDE8F081C9030BD56268E16A9142BB
:100A700000D81146A26911442269891A814200DD19
:100A800008460544002D01DA0220EAE7E16A6068C1
:100A9000E268814206D29103E06203D522F400317C
:100AA00041F01002A6690027AE4213DCE16A8142E0
:100AB00001D90B4600E0034603EB060C2369ACEBBF
:100AC000030CAC4506DD814201D98C4600E084462A
:100AD0009C4505D1A760276042F02000A5620DE08B
:100AE000AD1BE669AE1B8142A66000D90846C01A5C
:100AF000281A20605819606022F02000034908403D
:100B0000E060002084F84870ABE70000BFCFD7FF5B
:100B1000C16821F4001141F08001C16000218160B1
:100B2000016070472DE9F047814614460E464FF0AC
:100B3000FF383248D5685769054209D03846A1695F
:100B4000FFF799FC002811DB2C48C0430540E56005
:100B50002B46324649463846FFF778FCA16920F01B
:100B60000042B21A11440028A16103D02046FFF7C9
:100B7000CFFF4046BDE8F08770B504460569C06AFE
:100B80006168884200D80846E16821F42011E160DC
:100B9000C90312D5A84208D02246411B2846FFF7B8
:100BA000C1FF10B14FF0FF3070BD0020E562C4E915
:100BB0000150E06820F48030E060002070BD10B586
:100BC0000446C06820F02000E060A16AA069884265
:100BD0000DD02046FFF7D0FFE06820F4405040F0F1
:100BE0001000E060A06AA0612069E062606044F2E9
:100BF0004001E0688843E06010BD00001000020082
:100C0000002801D000F03CB87047000010B5014644
:100C100002A000F07DF8012010BD000053494752AA
:100C2000545245443A2052656469726563743A20AF
:100C300063616E2774206F70656E3A2000000000BB
:100C400010B5431C02E010F8011B71B18107FAD105
:100C50004FF0013202C88C1A8C4314EAC211F9D049
:100C6000C01A0A0603D0C01E10BDC01A10BD0A0467
:100C700001D0801E10BD0902FCD0401E10BD000036
:100C800001491820ABBEFEE72600020000210160EA
:100C9000C0E90110704710207047034640688C4639
:100CA000002818BF88423CBF03464068F8D3186844
:100CB0001844884207D00CF1030020F00700001D03
:100CC000411A521A0146081D0A60FFF707BC10B509
:100CD0000146C268900703D0900607D5886A0AE0EB
:100CE00000F03EF801210160881E10BD8B69486844
:100CF00018440B69C01A91F848301BB191F849109B
:100D0000401A10BD1103FCD50028FADD401E10BDAD
:100D100070B505460C460A2000E06D1C00F018F87E
:100D200035B128780028F8D102E0641C00F010F8F2
:100D300014B120780028F8D1BDE870400A2000F0F6
:100D400007B810B500F010F8BDE81040FFF758BF25
:100D500008B569468DF800000320ABBE08BD000051
:100D6000004870473401002010B5012805D000214B
:100D700003A0FFF7CDFF012010BD09A1F8E7000097
:100D800053494752544D454D3A204F7574206F6674
:100D90002068656170206D656D6F727900000000DC
:100DA0003A2048656170206D656D6F727920636FC0
:100DB0007272757074656400F0B50A4600210023F4
:100DC000002400BF3DE0012505FA01F3156805EA9E
:100DD00003049C4234D105684F000326BE40B5434E
:100DE000056015794E00B5400668354305601579F4
:100DF000012D02D01579022D16D185684F000326EA
:100E0000BE40B543856055794E00B5408668354390
:100E10008560456801268E40B543456045689679F2
:100E20008E40B6B235434560C5684F000326BE40CC
:100E3000B543C560D5794E00B540C6683543C56039
:100E4000491C1029BFD3F0BDF0B5002300244D0785
:100E5000ED0E02FA05F3CE1000F1200555F82650EC
:100E60004E07F70E0F26BE40B543CF1000F1200607
:100E700046F82750CE1000F1200555F8265045EAD7
:100E80000304CE1000F1200545F82640F0BD000017
:100E900070B5002100230F22C4781CB3174C2468BE
:100EA00004F4E064C4F5E064C4F30721C1F1040470
:100EB000E3B20A4144789C40E1B284781440214373
:100EC0000C07210E0E4C05786155047804F01F05BF
:100ED0000124AC4005786D11AD0005F1E025C5F8A1
:100EE000004109E0047804F01F050124AC40054DE1
:100EF0000678761145F8264070BD00000CED00E044
:100F000000E400E080E100E029B1064A12680243F3
:100F1000044B1A6004E0034A12688243014B1A60D2
:100F2000704700003038024029B1064A1268024377
:100F3000044B1A6004E0034A12688243014B1A60B2
:100F40007047000044380240F0B500210022002420
:100F5000022500260223324F3F6807F00C0121B121
:100F6000042905D0082937D105E02E4F076036E067
:100F70002D4F076033E02A4F3F1F3F68C7F380566D
:100F8000274F3F1F3F6807F03F036EB1264FB7FB67
:100F9000F3F7DFF88CC0ACF1040CDCF800C0CCF344
:100FA000881C07FB0CF40CE01E4FB7FBF3F7DFF8CF
:100FB00070C0ACF1040CDCF800C0CCF3881C07FB5B
:100FC0000CF4174F3F1F3F68C7F301477F1C7D009C
:100FD000B4FBF5F7076002E0124F076000BF00BFE7
:100FE0000F4F3F6807F0F0010909104F7A5C07685E
:100FF000D74047600A4F3F6807F4E051890A0B4F1A
:101000007A5C4768D7408760054F3F6807F46041C6
:10101000490B064F7A5C4768D740C760F0BD0000B7
:10102000083802400024F40000127A000B0000206F
:101030000CB50020019000903448006840F48030E6
:101040003249086000BF3148006800F40030009069
:101050000198401C0190009818B90198B0F5A04F74
:10106000F1D12A48006800F4003010B1012000904E
:1010700001E0002000900098012846D1234840302C
:10108000006840F0805021494031086020480068E5
:1010900040F440401E4908601C48083000681B4965
:1010A000083108600846006840F4004008600846BF
:1010B000006840F4A05008601648091F0860081F27
:1010C000006840F08070091F086000BF0F4800688A
:1010D00000F000700028F9D040F205700E49086059
:1010E0000A480830006820F0030008490831086009
:1010F0000846006840F00200086000BF034808305E
:10110000006800F00C000828F8D10CBD003802403F
:101110000070004008544007003C024010B51548DC
:10112000006840F47000134908601348006840F0FC
:1011300001001149086000200F49083108600E487D
:1011400000680E4908400C4908600D48091D0860F8
:10115000081F006820F48020091F0860002006494D
:101160000C310860FFF764FF4FF0006001498039DF
:10117000086010BD88ED00E000380240FFFFF6FE79
:101180001030002430B501460022002008702520D0
:1011900000F01F040123A340144C450944F82530F6
:1011A00000BF13480068134B1B68984210D01248C8
:1011B000104B1B68C05C08700E480068401C0D4B4B
:1011C000186018460068102801D10020186001221C
:1011D000252000F01F040123A3404409A40004F1CA
:1011E000E024C4F8003100BF104630BD80E100E0CB
:1011F00000000020040000202800002010B540F26C
:1012000025511D4800F0E5F8012824D140F2255170
:10121000194800F0C3F8184800F094F9174908700D
:1012200017480078401C17490870084600781028B5
:1012300001D10020087013480078134909688842DA
:1012400009D00E48007811490D4A126888540D489B
:1012500000780B49086040F22661074800F0B9F8B1
:10126000012807D140F22661034800F097F80120D9
:101270000749087010BD000000100140090000205F
:10128000000000200A0000200400002028000020A8
:101290000800002000B587B001211020FFF744FEB0
:1012A00001210220FFF730FEC020059002208DF8BA
:1012B00018008DF8190000208DF81A0001208DF813
:1012C0001B0005A92648FFF777FD072206212448C1
:1012D000FFF7BAFD072211462148FFF7B5FD4FF48D
:1012E000E13001900020ADF80800ADF80A00ADF83B
:1012F0000C00ADF810000C20ADF80E0001A9194843
:1013000000F0B6F8002240F22771164800F08BF882
:10131000012240F22661134800F085F8012240F2D4
:101320002551104800F07FF801200F490870002077
:101330000E4908600E49086025208DF80000002045
:101340008DF801008DF8020001208DF80300684639
:10135000FFF79EFD0121034800F02FF807B000BD04
:10136000000402400010014008000020000000209E
:101370000400002010B5044600BF0648007800288D
:10138000FBD02146044800F0E2F800200149087033
:1013900010BD0000080000200010014010B5002220
:1013A000002340F66A14A14200D100BF0A120124B2
:1013B0009440A3B2DC43048010BD21B1828942F481
:1013C0000052828104E082894DF6FF731A408281C7
:1013D000704770B50246002400230025002040F627
:1013E0006A16B14200D100BFC1F3421501F01F03DC
:1013F000012606FA03F3012D02D19689334006E057
:10140000022D02D1168A334001E0968A33400C1235
:10141000012606FA04F41688344013B10CB10120F9
:1014200000E0002070BDF0B5034600240026002532
:10143000002040F66A17B94200D100BF1846C1F338
:10144000421401F01F06012707FA06F5012C01D10D
:101450000C3004E0022C01D1103000E014301AB13D
:1014600007682F43076002E00768AF430760F0BDDD
:101470002DE9FF4705460E460024A14600BFA046C1
:10148000B08900B100BF2C8A24F44054F088044392
:101490002C82AC8941F20C608443B08831890843C6
:1014A000718908430443AC81AC8A24F44074B08948
:1014B0000443AC826846FFF747FD2048854202D0CE
:1014C0001F48854202D1DDF80C9001E0DDF808905C
:1014D000A88900F4004040B109EBC90000EB0910F5
:1014E00031684900B0FBF1F707E009EBC90000EBF8
:1014F000091031688900B0FBF1F76420B7FBF0F008
:1015000004012009642101FB1078A88900F400403F
:1015100040B1322000EBC800B0FBF1F000F0070052
:10152000044308E0322000EB08106421B0FBF1F026
:1015300000F00F0004432C81BDE8FF87001001403C
:101540000014014001468888C0F308007047C1F3C9
:101550000802828070478A68002A01DCFEF7F9BF22
:10156000521E8A604A68C0B2531C4B6010707047AC
:1015700008B5FFF78FFE0FE06846FFF703FE58B18E
:101580009DF80000FFF7F6FE9DF80000782803D1D3
:1015900003A0FEF771FE00E0EEE700BF002008BDEB
:1015A000497A6C617A696D20697A207065746C6A19
:1015B000650000004FF04070E1EE100A70473A7489
:1015C00074003A7474003A7474000000EC1500085A
:1015D0000000002028000000C401000814160008C4
:1015E0002800002070070000E00100080000000053
:1015F00000000000000000000000000102030401E0
:1016000002030406070809000000000000000000B3
:0416100000000000D6
:0400000508000239B4
:00000001FF
